:1004B000D3EF9400EE940040147D6F7C00ED1D702E
:0D04C000011CED4C70F7EF1F70E61E80E38D
:0104CD00220C
:0505BA00E4AF23F5236E
:0105BF002219
:1004EC00E4FF20B1030F801320B0047F02800C20A6
:0B04FC00B2047F03800520B3027F04E0
:0105070022D1
:10053E008520211204EC8F20E521600AE52070064B
:08054E00852123852122AF2243
:010556002282
:0C05080002080000020A0000020C0000C3
:100221001205571205BA8F15E515605AB4010CE590
:100231001270047F0180027F008F12E515B402095C
:10024100E4F511F510F50EF512E51564037037E5C7
:10025100127033E511FD7C007F0312048C7F057E53
:10026100001204B0E510FD7C007F0412048C7F05B0
:100271007E001204B0E50EFD7C007F0512048C7F28
:10028100057E001204B0E515B40419E51270157F5E
:100291000312040C8F117F0412040C8F107F0512BE
:0A02A100040C8F0E1203A0020224C9
:03000B000202AB43
:1002AB00C0E0C0F0C083C082C0D075D000C000C019
:0D02BB0001C002C003C004C005C006C0079A
:1002C800758CFC758AFC0509E509AE0870020508FD
:1002D80014640A4E7007F508F50912053E050BE58A
:1002E8000BAE0A7002050A1464024E7007F50AF58F
:1002F8000B120523050DE50DAE0C7002050C14C399
:10030800940AEE94004009750C00750D00120465FE
:10031800D007D006D005D004D003D002D001D00039
:0B032800D0D0D082D083D0F0D0E032E3
:1003A000E51175F00A84FD7C007F011205A8E511B6
:1003B00075F00A84E5F0FD7C007F021205A87D0C33
:1003C0007C007F031205A8E51075F00A84FD7C000F
:1003D0007F041205A8E51075F00A84E5F0FD7C00A5
:1003E0007F051205A87D0C7C007F061205A8E50E8E
:1003F00075F00A84FD7C007F071205A8E50E75F0F4
:0C0400000A84E5F0FD7C007F080205A8DE
:10046500E5126022050EE50EC394644019E4F50E0D
:100475000510E510943C400EE4F5100511E51194C6
:070485003C4003E4F51122E5
:10000E00E4F5277F01FE1204B07590FFC29320978E
:10001E00147F0F7E001204B03097FD7F0F7E00120A
:10002E0004B07527012096147F0F7E001204B030A5
:10003E0096FD7F0F7E001204B07527052095147F64
:10004E000F7E001204B03095FD7F0F7E001204B0BB
:10005E007527092094147F0F7E001204B03094FD92
:10006E007F0F7E001204B075270DC2922097147F69
:10007E000F7E001204B03097FD7F0F7E001204B089
:10008E007527022096147F0F7E001204B03096FD65
:10009E007F0F7E001204B07527062095147F0F7E09
:1000AE00001204B03095FD7F0F7E001204B075274C
:1000BE000A2094147F0F7E001204B03094FD7F0F3F
:1000CE007E001204B075270EC2912097147F0F7E0A
:1000DE00001204B03097FD7F0F7E001204B075271A
:1000EE00032096147F0F7E001204B03096FD7F0F12
:1000FE007E001204B07527072095147F0F7E001224
:10010E0004B03095FD7F0F7E001204B075270B20D2
:10011E0094147F0F7E001204B03094FD7F0F7E008A
:10012E001204B075270FC2902097147F0F7E001215
:10013E0004B03097FD7F0F7E001204B075270420A7
:10014E0096147F0F7E001204B03096FD7F0F7E0056
:10015E001204B07527072095147F0F7E001204B08D
:10016E003095FD7F0F7E001204B075270C2094147D
:10017E007F0F7E001204B03094FD7F0F7E001204BC
:06018E00B0752710AF2739
:010194002248
:0D0585003F065B4F666D7D077F6F80004075
:0E0514000917000B0B0B0B0B0B0B0B01160149
:10033300E4F580EF14B40800505490034B75F003B8
:10034300A4C58325F0C58373020363020367020315
:100353006B02036F02037302037B02038302038BAB
:10036300D2A4800ED2A48012D2A48016D2A4801A62
:10037300C2A4D2A3D2A28016C2A4D2A3C2A2800EC8
:10038300C2A4C2A3D2A28006C2A4C2A3C2A274857D
:0D0393002DF58274053CF583E493F580227E
:0905A800AE0574172FF8A6062217
:1005230074172516F8E6FD7C00AF16120333051683
:0A053300E516C39409400375160194
:01053D00229B
:100557005389F0438901758CFC758AFCC28DD2AF33
:07056700D2A9D28CC2B92217
:10056E0053890F438910758DFC758BFCC28FD2AFEA
:07057E00D2ABD28EC2BB22FA
:10048C008F248C258D261205B17FA012043C1205F9
:10049C0092AF2412043C120592AF2612043C1205B2
:0404AC0092020003B5
:02040C008F243B
:10040E001205B17FA012043C120592AF2412043CD7
:10041E001205921205B17FA112043C12059212042C
:0D042E00CE8F257F0112059E120003AF2521
:01043B00229E
:0905B100D2A0D2A1C2A0C2A12275
:07000300C2A0D2A1D2A0228D
:02043C00AD070A
:10043E00E4FB74807E00A803088006CEA2E713CEEC
:10044E0013D8F8FFEDF582EF558224FF92A0D2A1CA
:06045E00C2A10BBB08DC8B
:010464002275
:1004CE00E4FFD2A0FED2A130A00D7480A806088051
:0D04DE0002C313D8FC4207C2A10EBE08E8FD
:0104EB0022EE
:0A059E00EF24FF92A0D2A1C2A12217
:0B059200D2A0D2A1A2A0E433FFC2A1BE
:01059D00223B
:0300000002019565
:0C019500787FE4F6D8FD7581270201DCBC
:1001A100020221E493A3F8E493A34003F68001F251
:1001B10008DFF48029E493A3F85407240CC8C3335F
:1001C100C4540F4420C8834004F456800146F6DF2E
:1001D100E4800B0102040810204080900508E47EB1
:1001E100019360BCA3FF543F30E509541FFEE49323
:1001F100A360010ECF54C025E060A840B8E493A3EA
:10020100FAE493A3F8E493A3C8C582C8CAC583CA14
:10021100F0A3C8C582C8CAC583CADFE9DEE780BECC
:0105220000D8
:00000001FF
